:10000000CDC10000FCC10000FAC10000F8C1000031
:10001000F6C10000F4C10000F2C10000F0C1000010
:10002000EEC10000ECC10000EAC10000E8C1000020
:10003000E6C10000E4C10000E2C10000E0C1000030
:10004000DEC10000DCC10000DAC10000D8C1000040
:10005000D6C10000D4C10000D2C100000C94F20D42
:10006000CEC1000011C7000045C70000C8C1000094
:10007000C6C10000C4C10000C2C10000C0C1000070
:10008000BEC10000BCC10000BAC10000B8C1000080
:10009000A6C70000DAC70000B2C10000B0C100006E
:1000A000AEC10000ACC10000AAC10000A8C10000A0
:1000B000A6C10000A4C10000A2C10000A0C10000B0
:1000C0009EC100009CC100009AC1000098C10000C0
:1000D00096C1000094C1000092C1000090C10000D0
:1000E0008EC100001C0F1F0F0E0F120F180F560F9E
:1000F000230F270F2D0F310F350F3B0F3F0F430FEE
:10010000560F490F4D0F510F5F5F5F5F5F5F5F5F7E
:100110005F5F5F5F5F5F5F5F5F5F005F5F5F5F5F4E
:100120005F5F5F5F5F5F5F5F5F5F5F5F5F002F735A
:10013000742F4465636973696F6E4E6577416972A8
:100140003F7569643D31007777772E6978696E660F
:10015000656E672E636F6D007365747570206F75C3
:1001600074006E6F207769666920636F6E6E6563D9
:100170007400636F6E6E656374206661696C65649C
:1001800000636F6E6E656374206D6964646C6520D6
:100190006661696C65640000000A0B02090C0D0EB3
:1001A0000807030401000000000000000000000038
:1001B000000000000000000000000000000000003F
:1001C00000000012111000000000000000000000FC
:1001D000000000000000000000000000000102100C
:1001E0002020080810204010204080020102010851
:1001F0000402010102040810204080804020100801
:100200000402018004020180402010080402010859
:1002100004020101020408102040800102040810B9
:1002200020408005050505070508080808020202A8
:10023000020A0A0808040404040101010101010181
:10024000010303030303030303040707070C0C0C58
:100250000C0C0C0C0C020202020606060606060630
:10026000060B0B0B0B0B0B0B0B00002200250028C1
:10027000002B002E003100340002010000050108AF
:10028000010B0100002100240027002A002D00306E
:1002900000330001010000040107010A0100407A57
:1002A00010F35A00A0724E18090010A5D4E80000FF
:1002B000E87648170000E40B54020000CA9A3B009D
:1002C0000000E1F505000080969800000040420F14
:1002D000000000A08601000000102700000000E8D8
:1002E00003000000006400000000000A000000009D
:1002F000000100000000002C76D888DC674F08233E
:10030000DFC1DFAE59E1B1B796E5E3E453C63AE6A3
:1003100051997696E8E6C28426EB898C9B62ED4083
:100320007C6FFCEFBC9C9F40F2BAA56FA5F49005D2
:100330005A2AF75C936B6CF9676DC11BFCE0E40D06
:1003400047FEF520E6B500D0ED902E0300943577FA
:10035000050080841E080000204E0A000000C80C22
:10036000333333330F986E12831141EF8D2114898B
:100370003BE65516CFFEE6DB18D1844B381BF77CE5
:100380001D901DA4BBE424203284725E228100C92A
:10039000F124ECA1E53D2700AC07570811241FBE4E
:1003A000CFEFD1E2DEBFCDBF00E00CBF13E0A0E095
:1003B000B2E0EAEEF9E200E00BBF02C007900D9256
:1003C000AC3CB107D9F725E0ACECB3E001C01D921D
:1003D000A831B207E1F713E0CCE9D3E000E006C0B2
:1003E00022970109FE010BBF0E94EE0FC839D10709
:1003F00080E00807A9F70E94E60D0C94F31400CEE4
:10040000CF93DF9300D000D0CDB7DEB726E040E039
:1004100052EC61E070E081ED93E0D4D466E072E0EC
:10042000CE0101960E94950BBE016F5F7F4F81ED5B
:1004300093E00AD7CE0101960E942E0B4DE050E0CA
:100440006EE674E08CEC93E020D18CEC93E0BFD1AD
:1004500068E571E081ED93E0E7D626960FB6F89453
:10046000DEBF0FBECDBFDF91CF9108950F931F93D5
:10047000CF93DF93CDB7DEB7C254D1090FB6F8944E
:10048000DEBF0FBECDBF67E471E0CE01CD960E9406
:10049000DB0C6EE271E0CE01C7960E94DB0C4AE0F5
:1004A00064E670E0CE0101960E943A0C4AE069E1F0
:1004B00070E0CE0107960E943A0C4AE06AE070E0D4
:1004C000CE010D960E943A0C22E049E25CE56FE80D
:1004D0007DE3CE0143960E948E0C4AE060E273E019
:1004E000CE0149960E943A0C22E041E75DE362EFBB
:1004F00071E4CE014F960E948E0C22E041E75DE34D
:1005000062EC71E4CE018B960E948E0C6FE072E07B
:10051000CE0185960E94950BBE01655D7F4FCE0191
:1005200085960E944F0D63E172E00E94600DBE014E
:10053000615E7F4F0E944F0D67E172E00E94600D87
:10054000BE01675E7F4F0E944F0D6DE172E00E9419
:10055000600DBE016D5E7F4F0E944F0D64E272E040
:100560000E94600DBE01635F7F4F0E944F0D6BE2E2
:1005700072E00E94600DBE01695F7F4F0E944F0DC7
:1005800062E372E00E94600DBE016F5F7F4F0E94C8
:100590004F0DBC01CE01C1960E94110CCE01859673
:1005A0000E942E0BCE018B960E942E0BCE014F96F1
:1005B0000E942E0BCE0149960E942E0BCE0143962F
:1005C0000E942E0BCE010D960E942E0BCE01079697
:1005D0000E942E0BCE0101960E942E0BBE01695C7B
:1005E0007F4FCE0101960E94110CBE01635C7F4FCC
:1005F000CE0107960E94110C8E010F5F1F4F20E560
:1006000030E0AE01495F5F4F6CEC73E0CE010D96B8
:100610004ED1CE0107960E942E0BC8010E942E0BD0
:1006200069897A894AE050E081ED93E0E3D66BE195
:1006300071E081ED93E0F8D5BE01635F7F4F81EDFE
:1006400093E002D668E071E081ED93E0EDD560E1E2
:1006500077E280E090E00E946B0ECE010D96FED70F
:10066000CE01C196FBD7CE01C796F8D7CE01CD9665
:10067000F5D7CE5BDF4F0FB6F894DEBF0FBECDBF10
:10068000DF91CF911F910F910895EF92FF920F93F9
:100690001F93CF93DF93EC018B01F42EE52E6AE3D9
:1006A00072E081ED93E0E0D51C821B830A8326E093
:1006B00040E052EC61E070E0C80184D3F882E98246
:1006C00061E08F2D0E94570F60E088810E94900F9B
:1006D00060ED77E080E090E00E946B0E61E0888141
:1006E000DF91CF911F910F91FF90EF900C94900F9D
:1006F000CF93DF93EC018A819B81DC01ED91FC912A
:100700000480F581E02D19951816190684F48A8164
:100710009B81DC01ED91FC910680F781E02D19951C
:1007200062E070E080E090E00E946B0EE4CFDF9129
:10073000CF9108958F929F92AF92BF92CF92DF9206
:10074000EF92FF920F931F93CF93DF93EC016B0116
:100750007A01480159016BE472E081ED93E059D5CB
:10076000B70181ED93E080D56CE672E081ED93E016
:1007700050D5B60181ED93E067D5CE01B9DFB50163
:10078000A4018A819B8176D6B6018A819B8133D56B
:10079000B7018A819B8133D7C82F62E772E081ED70
:1007A00093E037D56C2F70E04AE050E081ED93E0A4
:1007B000FFD58C2FDF91CF911F910F91FF90EF907C
:1007C000DF90CF90BF90AF909F908F900895EF9261
:1007D000FF920F931F93CF93DF9300D000D0CDB73C
:1007E000DEB77C016BE772E081ED93E03DD568EC0C
:1007F00070E080E090E00E946B0E60E972E0CE0154
:10080000019693D708EE13E020E030E049E653E08C
:10081000BE016F5F7F4FC7018DDF182FCE0101969C
:100820001DD7112321F365E972E0CE0101967DD732
:1008300008E91AE320E030E04EE952E0BE016F5FC4
:100840007F4FC70177DF182FCE01019607D711110F
:100850001BC06AEA72E081ED93E006D56EED72E0AE
:10086000CE01019662D700EC14ED21E030E042EFBA
:1008700052E0BE016F5F7F4FC7015CDF182FCE01D2
:100880000196ECD6112321F081E0F701848302C0A8
:10089000F701148226960FB6F894DEBF0FBECDBFC7
:1008A000DF91CF911F910F91FF90EF9008956F927C
:1008B0007F928F929F92AF92BF92CF92DF92EF92F0
:1008C000FF920F931F93CF93DF93CDB7DEB76E9751
:1008D0000FB6F894DEBF0FBECDBF6C017B015A018D
:1008E00039014801DB0114968C91882309F442C137
:1008F00061E073E0CE01079618D7B501CE010796E7
:100900000E944F0D65E173E00E94600DB3010E94EB
:10091000780D63E573E00E94600DBC01CE01019685
:1009200080D700E117E220E030E048E153E0BE016B
:100930006F5F7F4FC701FEDE782ECE0101968ED607
:10094000CE0107968BD6772009F411C160E273E0DF
:10095000CE010196EAD6B401CE0101960E944F0D58
:1009600065E273E00E94600DB5010E944F0D67E3E0
:1009700073E00E94600DBC01CE01499652D7CE01B2
:1009800001966CD663E573E0CE010196CED66D8DEF
:100990007E8D4AE0CE010D9697D766E573E0CE01D5
:1009A0000796C3D6BE01635F7F4FCE0107960E94B4
:1009B0004F0DBE016F5F7F4F0E944F0DBC01CE01F6
:1009C00043962FD7CE01079649D6CE010D9646D62F
:1009D000CE01019643D6BE016D5E7F4F81ED93E05F
:1009E00033D4BE016D5E7F4FCE0101961AD700E170
:1009F00017E220E030E042E653E0BE016F5F7F4F38
:100A0000C70198DEB82ECE01019628D6BB2009F486
:100A1000A5C0BE01675E7F4FCE01019602D700E1FF
:100A200017E220E030E044E653E0BE016F5F7F4F05
:100A3000C70180DEB82ECE01019610D6BB2009F486
:100A40008DC065E573E0CE010D966FD6F70182810A
:100A50009381DC01ED91FC910480F581E02D1995E5
:100A60005C011A141B0404F5F70182819381DC01F7
:100A7000ED91FC910680F781E02D1995682FCE014C
:100A80000D96CBD7F70182819381DC01ED91FC912A
:100A90000480F581E02D19955C0162E070E080E052
:100AA00090E00E946B0EDDCF6CE673E081ED93E089
:100AB000DBD3BE01635F7F4F81ED93E0C5D36EE86A
:100AC00073E081ED93E0D0D329893A89253131054E
:100AD000B0F144E050E0BE01635F7F4FCE0101966C
:100AE0000E94A20DBE016F5F7F4FCE010D96A1D671
:100AF000CE010196B3D561E573E0CE01079615D618
:100B0000BE01695F7F4FCE010D960E949F0D29891E
:100B10003A89AC014C5F5F4FBE01635F7F4FCE01EE
:100B200001960E94A20DBE016F5F7F4FCE010D9610
:100B300080D6CE01019692D5CE0107968FD5BE0103
:100B4000635F7F4FC60165D5CE010D9687D5CE0177
:100B5000439684D5CE01499681D510C0CE014396E7
:100B60007DD5CE0149967AD561E871E005C062E78E
:100B700071E002C062E671E0C6011DD7C6016E9643
:100B80000FB6F894DEBF0FBECDBFDF91CF911F919E
:100B90000F91FF90EF90DF90CF90BF90AF909F901C
:100BA0008F907F906F900895FC01818D228D90E051
:100BB000805C9F4F821B91098F7399270895FC01D8
:100BC000918D828D981731F0828DE80FF11D858D02
:100BD00090E008958FEF9FEF0895FC01918D828D35
:100BE000981761F0828DDF01A80FB11D5D968C9181
:100BF000928D9F5F9F73928F90E008958FEF9FEF8C
:100C0000089583EA97E0892B39F080E090E0892B02
:100C100019F099D1811124C08EE498E0892B39F024
:100C200080E090E0892B19F039D281111CC080E05E
:100C300090E0892B41F080E090E0892B21F00E9428
:100C40000000811113C080E090E0892BA1F080E0CA
:100C500090E0892B81F00E94000081110AC0089564
:100C60000E940000D9CF0E940000E1CF0E94000046
:100C7000EACF0C9400000895FC01848DDF01A80FD9
:100C8000B11DA35ABF4F2C91848D90E001968F73B4
:100C90009927848FA689B7892C93A089B1898C91D3
:100CA00080648C93938D848D981306C00288F38999
:100CB000E02D80818F7D80830895CF93DF93EC01B9
:100CC000888D8823C1F0EA89FB89808185FD05C074
:100CD000A889B9898C9186FD0EC00FB607FCF5CFA7
:100CE000808185FFF2CFA889B9898C9185FFEDCFEE
:100CF000CE01C2DFE8CFDF91CF910895CF92DF928E
:100D0000FF920F931F93CF93DF931F92CDB7DEB760
:100D10006C0181E0D60158968C9358975B969C9114
:100D20005B975C968C915C97981307C05096ED91F9
:100D3000FC915197808185FD2DC0F601038D10E057
:100D40000F5F1F4F0F731127F02EF601848DF812DD
:100D500010C00FB607FCF9CFD6015096ED91FC916B
:100D60005197808185FFF1CFC601698385DF698155
:100D7000ECCF838DE80FF11DE35AFF4F6083D6015E
:100D80005B960C935B975296ED91FC915397808103
:100D900080620CC0D6015696ED91FC915797608306
:100DA0005096ED91FC91519780818064808381E021
:100DB00090E00F90DF91CF911F910F91FF90DF9006
:100DC000CF900895BF92CF92DF92EF92FF92CF9390
:100DD000DF93EC016A017B01B22EE889F98982E098
:100DE0008083411581EE580761057105A1F060E02F
:100DF00079E08DE390E0A70196010E94C60F215093
:100E0000310941095109569547953795279521157F
:100E100080E1380798F0E889F989108260E874E881
:100E20008EE190E0A70196010E94C60F2150310982
:100E3000410951095695479537952795EC85FD85CC
:100E40003083EE85FF852083188EEC89FD89B08282
:100E5000EA89FB89808180618083EA89FB898081BE
:100E600088608083EA89FB89808180688083EA8941
:100E7000FB8980818F7D8083DF91CF91FF90EF9000
:100E8000DF90CF90BF9008951F920F920FB60F92F0
:100E900011240BB60F922F938F939F93EF93FF9391
:100EA000E091E103F091E2038081E091E703F091AA
:100EB000E80382FD12C090818091EA038F5F8F73F7
:100EC0002091EB03821751F0E091EA03F0E0EF523A
:100ED000FC4F958F8093EA0301C08081FF91EF91D1
:100EE0009F918F912F910F900BBE0F900FBE0F907F
:100EF0001F9018951F920F920FB60F9211240BB6E8
:100F00000F922F933F934F935F936F937F938F93A2
:100F10009F93AF93BF93EF93FF9381ED93E0ACDE8C
:100F2000FF91EF91BF91AF919F918F917F916F91C1
:100F30005F914F913F912F910F900BBE0F900FBE7D
:100F40000F901F90189581ED93E02EDE21E0892B04
:100F500009F420E0822F08951092D4031092D30355
:100F600088EE93E0A0E0B0E08093D5039093D603A1
:100F7000A093D703B093D80382EB93E09093D2036E
:100F80008093D10385EC90E09093DE038093DD03A2
:100F900084EC90E09093E0038093DF0380EC90E09A
:100FA0009093E2038093E10381EC90E09093E4035B
:100FB0008093E30382EC90E09093E6038093E50353
:100FC00086EC90E09093E8038093E7031092EA03A5
:100FD0001092EB031092EC031092ED0308951F9210
:100FE0000F920FB60F9211240BB60F922F938F937F
:100FF0009F93EF93FF93E0917E04F0917F048081B3
:10100000E0918404F091850482FD12C0908180916A
:1010100087048F5F8F7320918804821751F0E091CD
:101020008704F0E0E259FB4F958F8093870401C05D
:101030008081FF91EF919F918F912F910F900BBE27
:101040000F900FBE0F901F9018951F920F920FB622
:101050000F9211240BB60F922F933F934F935F93F0
:101060006F937F938F939F93AF93BF93EF93FF9370
:101070008EE694E001DEFF91EF91BF91AF919F91D9
:101080008F917F916F915F914F913F912F910F9031
:101090000BBE0F900FBE0F901F9018958EE694E038
:1010A00083DD21E0892B09F420E0822F089510923E
:1010B00071041092700488EE93E0A0E0B0E0809399
:1010C000720490937304A0937404B093750482EB3C
:1010D00093E090936F0480936E048DEC90E0909376
:1010E0007B0480937A048CEC90E090937D04809351
:1010F0007C0488EC90E090937F0480937E0489ECDC
:1011000090E090938104809380048AEC90E0909327
:101110008304809382048EEC90E090938504809306
:10112000840410928704109288041092890410920B
:101130008A040895CF92DF92EF92FF920F931F934C
:10114000CF93DF937C016A01EB0100E010E00C1506
:101150001D0571F06991D701ED91FC910190F0812D
:10116000E02DC7011995892B19F00F5F1F4FEFCFA5
:10117000C801DF91CF911F910F91FF90EF90DF9009
:10118000CF9008956115710581F0DB010D9000206D
:10119000E9F7AD0141505109461B570BDC01ED91B8
:1011A000FC910280F381E02D199480E090E0089595
:1011B000EF92FF920F931F93CF93DF938C017B01EC
:1011C000C0E0D0E0F701EC0FFD1F6491662359F0F9
:1011D000F801A081B181ED91FC91C8011995892B8D
:1011E00011F02196EFCFCE01DF91CF911F910F919A
:1011F000FF90EF900895DC01ED91FC91DB011496D6
:101200004D915C9115976D917C910280F381E02D59
:101210001994B8CFDC01ED91FC910190F081E02DA3
:10122000199463E573E0AECF0F931F93CF93DF93D1
:10123000EC01BEDF8C01CE01F4DF800F911FDF9146
:10124000CF911F910F9108950F931F93CF93DF9329
:10125000EC01D1DF8C01CE01E4DF800F911FDF9123
:10126000CF911F910F9108950F931F93CF93DF9309
:10127000EC0188DF8C01CE01D4DF800F911FDF915C
:10128000CF911F910F9108958F929F92AF92BF922D
:10129000DF92EF92FF920F931F93CF93DF93CDB71F
:1012A000DEB7A1970FB6F894DEBF0FBECDBF7C01AD
:1012B000F42FD52ECB0119A2223008F42AE08E019A
:1012C0000F5D1F4F822E912CA12CB12C6F2F7D2DE5
:1012D000A50194015BD6F22FD32ECA01015011094A
:1012E0006A3014F4E0E301C0E7E3E60FD801EC93C1
:1012F000232B242B252B51F7B801C70143DFA196DF
:101300000FB6F894DEBF0FBECDBFDF91CF911F9116
:101310000F91FF90EF90DF90BF90AF909F908F90D4
:101320000895CF92DF92EF92FF920F931F93CF9386
:10133000DF93EC016A017B012115310579F4E88125
:10134000F9810190F081E02D642FDF91CF911F9101
:101350000F91FF90EF90DF90CF9019942A303105D4
:10136000D9F477FF18C06DE255DF8C01442755276B
:10137000BA014C195D096E097F092AE0CE0184DFAC
:10138000800F911FDF91CF911F910F91FF90EF90F0
:10139000DF90CF9008952AE0B701A601CE01DF913A
:1013A000CF911F910F91FF90EF90DF90CF906CCF76
:1013B0000F931F93CF93DF93EC019A01AB01662744
:1013C00057FD6095762FADDF8C01CE012ADF800FAF
:1013D000911FDF91CF911F910F9108952115310534
:1013E00041F4DC01ED91FC910190F081E02D642F3E
:1013F00019944ACF0F931F93CF93DF93EC019A0177
:10140000AB0160E070E0EADF8C01CE010ADF800F03
:10141000911FDF91CF911F910F9108950F931F930B
:10142000CF93DF93EC0128D4688779878A879B87DD
:10143000E881F9810680F781E02DCE01199597FFAB
:1014400014C01AD4088519852A853B85601B710B49
:10145000820B930B0C811D812E813F8160177107D8
:101460008207930728F38FEF9FEFDF91CF911F91B2
:101470000F910895FC014483558366837783089513
:101480004F925F926F927F928F929F92AF92BF9294
:10149000CF92DF92EF92FF920F931F93CF93DF9340
:1014A0004C01EB0186E0849F8001859F100D112483
:1014B000060F171FFB01E017F10708F582819381E2
:1014C000892B19F13696F7CF40815181648175815E
:1014D000DA01A60FB71F2C91332727FD309582170D
:1014E000930709F56F5F7F4F758364832281338192
:1014F0006217730751F03696E017F10728F3C4011D
:101500008DDF97FD46C0FE01F7CFEC1BFD0BF59577
:10151000E7952BEA3AEAE29FC001E39F900DF29F24
:10152000900D112438C06115710529F3A480B58090
:1015300095012150310935832483DA01A20FB31FAD
:10154000AC91BB27A7FDB0958A179B07F9F421152D
:101550003105C9F06A017B01E21AF30AE40EF51EB7
:10156000412C512CD6016D906D01D7017D907D01EC
:10157000671006C0BFEF4B1A5B0A4216530690F382
:101580004216530699F6B582A482B5CF232B71F685
:10159000B2CF8FEF9FEFDF91CF911F910F91FF900F
:1015A000EF90DF90CF90BF90AF909F908F907F9003
:1015B0006F905F904F900895CF93DF9300D000D04D
:1015C000CDB7DEB7FE01319626E0DF011D922A95E8
:1015D000E9F77A8369835C834B8341E050E0BF0184
:1015E0004FDF21E0892B09F020E0822F26960FB6ED
:1015F000F894DEBF0FBECDBFDF91CF910895FB0100
:1016000001900020E9F7AF0141505109461B570BEB
:10161000D3CFFC01DB01118210821382128215826A
:1016200014828D919C9111979183808312968D9154
:101630009C9113979383828314968D919C91159717
:101640009583848311961C921E9213961C921E926F
:10165000129715961C921E9214970895FC01808192
:10166000918178C5CF93DF93EC01888199810097B0
:1016700009F070D5198218821D821C821B821A8281
:10168000DF91CF9108950F931F93CF93DF93EC01D8
:101690008B016F5F7F4F88819981EBD5009731F087
:1016A000998388831B830A8381E001C080E0DF91F6
:1016B000CF911F910F910895CF93DF93EC01888113
:1016C0009981892B29F08A819B818617970758F485
:1016D000CE01D9DF882341F08C819D81892B19F4BB
:1016E000E881F981108281E0DF91CF910895EF9236
:1016F000FF920F931F93CF93DF93EC017B018A013D
:10170000BA01DADF811103C0CE01ACDF06C01D8350
:101710000C83B70188819981A9D6CE01DF91CF9141
:101720001F910F91FF90EF900895FC01118210829C
:1017300013821282158214826115710551F0FB012A
:1017400001900020E9F7AF0141505109461B570BAA
:10175000CECF0895EF92FF920F931F93CF93DF9315
:10176000EC017B018A01BA01A7DF811103C0CE0120
:1017700079DF06C01D830C83B701888199815DD60E
:10178000CE01DF91CF911F910F91FF90EF900895BF
:101790000F931F93CF93DF938C01EB01FC018081AA
:1017A0009181009789F0428153812C813D814217BC
:1017B000530748F06881798159D68C819D81F80161
:1017C0009583848312C0C6D488819981F80191835E
:1017D00080838A819B81938382838C819D81958381
:1017E0008483198218821B821A821D821C82DF91D7
:1017F000CF911F910F910895CF93DF93EC01FB01DF
:101800008617970751F0608171816115710521F08C
:10181000448155816CDF01C025DFCE01DF91CF917E
:101820000895FC01118210821382128215821482A3
:10183000E3CFCF93DF93EC018617970709F0A8DF7A
:10184000CE01DF91CF910895CF93DF93EC01611525
:10185000710559F0FB0101900020E9F7AF014150FB
:101860005109461B570B43DF01C0FCDECE01DF915F
:10187000CF9108950F931F93CF93DF93CDB7DEB72A
:1018800062970FB6F894DEBF0FBECDBF8C01CB01BF
:10189000F80111821082138212821582148250E0A4
:1018A000BE016F5F7F4F03D6BE016F5F7F4FC801E0
:1018B000CBDF62960FB6F894DEBF0FBECDBFDF91CF
:1018C000CF911F910F9108950F931F93CF93DF93A3
:1018D000CDB7DEB761970FB6F894DEBF0FBECDBFB0
:1018E0008C01CB01F80111821082138212821582C1
:1018F000148250E0BE016F5F7F4FEDD5BE016F5F78
:101900007F4FC801A1DF61960FB6F894DEBF0FBE0E
:10191000CDBFDF91CF911F910F910895EF92FF926C
:101920000F931F93CF93DF93CDB7DEB7A1970FB679
:10193000F894DEBF0FBECDBF7C01CB01BA01F70129
:1019400011821082138212821582148242E0420FA9
:101950008E010F5F1F4F46D3BC01C70175DFA196F3
:101960000FB6F894DEBF0FBECDBFDF91CF911F91B0
:101970000F91FF90EF9008950F931F93CF93DF93F4
:101980001F921F92CDB7DEB78C016115710551F022
:10199000CB0169837A8358D5AC0169817A81C8010A
:1019A000D9DE01C05FDEC8010F900F90DF91CF91AB
:1019B0001F910F910895FC011182108213821282EF
:1019C00015821482D9CFEF92FF920F931F93CF937A
:1019D000DF93EC017B010C811D816115710511F410
:1019E00080E014C04115510581F0040F151FB801A6
:1019F00063DE8823A9F3288139818C819D81B70119
:101A0000820F931F33D51D830C8381E0DF91CF912B
:101A10001F910F91FF90EF900895CF93DF931F9246
:101A20001F92CDB7DEB769831A8241E050E0BE0154
:101A30006F5F7F4FC8DF0F900F90DF91CF910895B8
:101A4000EF92FF920F931F93CF93DF93CDB7DEB743
:101A500028970FB6F894DEBF0FBECDBF7C01CB0137
:101A60004AE08E010F5F1F4FB8012BD5F80101909E
:101A70000020E9F7AF0141505109401B510BB8015B
:101A8000C701A1DF28960FB6F894DEBF0FBECDBF09
:101A9000DF91CF911F910F91FF90EF900895CF9319
:101AA000DF93EC01FB0144815581608171818BDF03
:101AB000811102C0CE01D6DDCE01DF91CF91089514
:101AC000CF93DF93EC016115710561F0FB0101908B
:101AD0000020E9F7AF0141505109461B570B73DF56
:101AE000811102C0CE01BEDDCE01DF91CF910895FC
:101AF000CF93DF93EC01A4DF811102C0CE01B2DDF0
:101B0000CE01DF91CF910895CF93DF93FC018481C3
:101B100095814817590770F4C081D181FB0160811C
:101B20007181CE01840F951FA8D4009719F08C1BEA
:101B30009D0B02C08FEF9FEFDF91CF91089540E0A2
:101B400050E0E2CFBF92CF92DF92EF92FF920F93DD
:101B50001F93CF93DF936C017B01EA018901241766
:101B6000350720F48D2FE901042F182F65E573E068
:101B7000C601DBDDD70114968D919C911597C8178E
:101B8000D907C0F48017910708F48C01D701ED91B3
:101B9000FC911197E00FF11FB08010826D917C9144
:101BA0006C0F7D1FC60150DED701ED91FC91E00F57
:101BB000F11FB082C601DF91CF911F910F91FF906D
:101BC000EF90DF90CF90BF9008950895BBD0FDDFD8
:101BD0000E940002C1E0D6E00E9436022097E1F3A5
:101BE00010D8FACF1F920F920FB60F9211242F9395
:101BF0003F938F939F93AF93BF9380910C059091E8
:101C00000D05A0910E05B0910F0530910B0523E055
:101C1000230F2D3720F40196A11DB11D05C026E824
:101C2000230F0296A11DB11D20930B0580930C0577
:101C300090930D05A0930E05B0930F0580911005AC
:101C400090911105A0911205B09113050196A11D67
:101C5000B11D8093100590931105A0931205B093C8
:101C60001305BF91AF919F918F913F912F910F904D
:101C70000FBE0F901F9018952FB7F89460910C0528
:101C800070910D0580910E0590910F052FBF08955D
:101C90003FB7F8948091100590911105A09112051D
:101CA000B091130526B5A89B05C02F3F19F00196EA
:101CB000A11DB11D3FBF6627782F892F9A2F620F74
:101CC000711D811D911D42E0660F771F881F991FAE
:101CD0004A95D1F708958F929F92AF92BF92CF927B
:101CE000DF92EF92FF926B017C01D2DF4B015C012E
:101CF000C114D104E104F104E1F047D1C9DF68194E
:101D000079098A099B09683E73408105910580F332
:101D100021E0C21AD108E108F10888EE880E83E0BC
:101D2000981EA11CB11CC114D104E104F10431F7C7
:101D3000DFCFFF90EF90DF90CF90BF90AF909F905C
:101D40008F900895789484B5826084BD84B5816055
:101D500084BD85B5826085BD85B5816085BDEEE6B3
:101D6000F0E0808181608083E1E8F0E01082808192
:101D700082608083808181608083E0E8F0E0808100
:101D800081608083E1EBF0E0808184608083E0EB20
:101D9000F0E0808181608083E1E9F0E08081826011
:101DA0008083808181608083E0E9F0E080818160D0
:101DB0008083E1EAF0E080818260808380818160BD
:101DC0008083E0EAF0E0808181608083E1E2F1E0FD
:101DD000808182608083808181608083E0E2F1E0A5
:101DE000808181608083EAE7F0E080818460808385
:101DF000808182608083808181608083808180682F
:101E000080831092C100089590E0FC013197E23187
:101E1000F10508F04BC0EE58FF4FDAC0809180000A
:101E20008F7703C0809180008F7D8093800008951C
:101E300080918000877FF9CF84B58F7702C084B509
:101E40008F7D84BD08958091B0008F7703C080910D
:101E5000B0008F7D8093B0000895809190008F77BF
:101E600007C0809190008F7D03C080919000877F94
:101E70008093900008958091A0008F7707C0809193
:101E8000A0008F7D03C08091A000877F8093A00079
:101E90000895809120018F7707C0809120018F7D68
:101EA00003C080912001877F809320010895CF9304
:101EB000DF9390E0FC01E352FE4F2491FC01ED5DC5
:101EC000FD4F8491882349F190E0880F991FFC0110
:101ED000ED57FD4FA591B49187599D4FFC01C591D8
:101EE000D4919FB7611108C0F8948C9120958223FA
:101EF0008C93888182230AC0623051F4F8948C91CB
:101F0000322F309583238C938881822B888304C061
:101F1000F8948C91822B8C939FBFDF91CF91089581
:101F20000F931F93CF93DF931F92CDB7DEB7282F68
:101F300030E0F901E956FE4F8491F901E352FE4F7A
:101F40001491F901ED5DFD4F04910023C1F0882348
:101F500019F0698359DF6981E02FF0E0EE0FFF1F70
:101F6000E759FD4FA591B4919FB7F8948C916111F9
:101F700003C01095812301C0812B8C939FBF0F90CC
:101F8000DF91CF911F910F9108950895A1E21A2E2C
:101F9000AA1BBB1BFD010DC0AA1FBB1FEE1FFF1F0D
:101FA000A217B307E407F50720F0A21BB30BE40B5D
:101FB000F50B661F771F881F991F1A9469F76095A4
:101FC0007095809590959B01AC01BD01CF0108955E
:101FD000EE0FFF1F0590F491E02D19940790F691F4
:101FE000E02D1994EF920F931F93CF93DF93E801A5
:101FF00047FF02C034E101C034E0E42FFF27E7FDD2
:10200000F095F7FF03C0F195E195F109E32E022F5A
:102010002E2FAE0183D2CE01DF91CF911F910F9170
:10202000EF900895CF93DF938230910510F482E012
:1020300090E0E0911605F091170520E030E0A0E077
:10204000B0E0309739F14081518148175907B8F015
:102050004817590771F482819381109729F01396DC
:102060009C938E9312972CC090931705809316051E
:1020700027C02115310531F04217530718F0A90187
:10208000DB0101C0EF019A01BD01DF010280F38194
:10209000E02DD7CF21153105F9F0281B390B24305D
:1020A000310580F48A819B816115710521F0FB0166
:1020B0009383828304C09093170580931605FE01D5
:1020C000329644C0FE01E20FF31F81939193225098
:1020D0003109398328833AC02091140530911505C0
:1020E000232B41F420910202309103023093150515
:1020F0002093140520910002309101022115310531
:1021000041F42DB73EB74091040250910502241BC3
:10211000350BE0911405F0911505E217F307A0F4D3
:102120002E1B3F0B2817390778F0AC014E5F5F4F2D
:102130002417350748F04E0F5F1F50931505409345
:1021400014058193919302C0E0E0F0E0CF01DF91AC
:10215000CF910895CF93DF93009709F487C0FC01D6
:10216000329713821282C0911605D09117052097DD
:1021700081F420813181280F391F809114059091BD
:1021800015058217930779F5F0931505E09314056B
:102190006DC0DE0120E030E0AE17BF0750F41296AC
:1021A0004D915C9113979D014115510509F1DA019B
:1021B000F3CFB383A28340815181840F951F8A1787
:1021C0009B0771F48D919C911197840F951F029636
:1021D0009183808312968D919C9113979383828330
:1021E0002115310529F4F0931705E09316053EC03B
:1021F000D9011396FC93EE9312974D915D91A40F24
:10220000B51FEA17FB0779F480819181840F951F30
:102210000296D90111969C938E9382819381139695
:102220009C938E931297E0E0F0E08A819B81009767
:1022300019F0FE01EC01F9CFCE0102962881398117
:10224000820F931F20911405309115052817390727
:1022500069F4309729F4109217051092160502C000
:1022600013821282D0931505C0931405DF91CF918C
:1022700008956F927F928F929F92AF92BF92CF926A
:10228000DF92EF92FF920F931F93CF93DF93EC01B6
:10229000CB01209779F4DF91CF911F910F91FF909F
:1022A000EF90DF90CF90BF90AF909F908F907F90F6
:1022B0006F90B8CEFE01E60FF71F9E012250310944
:1022C000E217F30708F4A8C0D9010D911C911197EA
:1022D00006171707B0F00530110508F49BC0A801D8
:1022E000445051094617570708F494C00250110989
:1022F000061B170B019311936D937C93CF012ADF7B
:1023000089C05B01A01AB10A4E01800E911EA091F6
:102310001605B0911705612C712C60E070E01097E4
:1023200009F449C0A815B905C9F5ED90FC901197BD
:10233000670142E0C40ED11CCA14DB0478F14701E6
:102340008A189B08640142E0C40ED11C1296BC900E
:1023500012971396AC91B5E0CB16D10440F0B2823F
:10236000A38391828082D9018D939C9309C00E5FD3
:102370001F4F0E0D1F1DF90111830083EB2DFA2F46
:102380006115710531F0DB011396FC93EE93129702
:1023900041C0F0931705E09316053CC06D917C9108
:1023A00011976616770608F43B01BD0112960D9051
:1023B000BC91A02DB4CF60911405709115056815DE
:1023C0007905E9F468167906D0F44091000250913D
:1023D00001024115510541F44DB75EB76091040209
:1023E00070910502461B570BE417F507A8F4F0930C
:1023F0001505E0931405F901918380830BC012DE6B
:102400007C01009749F0A801BE0127D0CE01A2DED1
:10241000C70104C0CE0102C080E090E0DF91CF91FF
:102420001F910F91FF90EF90DF90CF90BF90AF90F2
:102430009F908F907F906F900895FB01DC01059035
:102440000D920020E1F70895FC0105900020E9F7C6
:10245000809590958E0F9F1F0895FB01DC0102C0AF
:1024600001900D9241505040D8F70895FB01DC01D6
:1024700001900D920020E1F70895FB015191552341
:10248000A9F0BF01DC014D9145174111E1F759F465
:10249000CD010190002049F04D9140154111C9F343
:1024A000FB014111EFCF81E090E0019708954532A3
:1024B000510518F4423008F004C0FB011082CB0132
:1024C0000895BB274A3031F4992322F4BDE2909558
:1024D00081959F4F0BC04532510518F4423008F0EA
:1024E00004C0FB011082CB010895BB27FB015527D7
:1024F000AA27880F991FAA1FA41710F0A41B839561
:102500005051B9F7A05DAA3308F0A95DA1930097D7
:1025100079F7B111B1931192CB0155C26F927F92AD
:102520009F92AF92BF92CF92DF92EF92FF920F9362
:102530001F93CF93DF93CDB7DEB729970FB6F894EB
:10254000DEBF0FBECDBF6A01B22E102F0C3320F4B8
:10255000FF24F394F00E02C04CE3F42E0F2D27E07D
:10256000AE014F5F5F4F57D17981272F29702130FE
:1025700031F0E1FC06C0E0FC06C060E005C06DE2A1
:1025800003C06BE201C060E2AE2DA07173FF36C0E4
:10259000662311F084E001C083E08B1510F4B81AB3
:1025A00001C0B12CA1110BC0F6018B2D90E2882344
:1025B00019F091938150FBCFCB0CD11CB12C662329
:1025C00031F0F601608396012F5F3F4F6901C6012C
:1025D0000396E2FE05C02EE4F601208331E404C038
:1025E0002EE6F601208331E631832283FC012B2D78
:1025F00030E22223F1F131932150FBCF72FF40C032
:10260000662311F084E001C083E08B1510F4B81A42
:1026100001C0B12CA1110BC0F6018B2D90E28823D3
:1026200019F091938150FBCFCB0CD11CB12C6623B8
:1026300031F0F601608396012F5F3F4F6901C601BB
:102640000396E2FE07C029E4F60120832EE42183ED
:1026500026E406C029E6F60120832EE6218326E63D
:102660002283FC012B2D30E2222319F031932150DB
:10267000FBCFFC01EB0DF11D10828EEF9FEFB7C079
:10268000B1E0611101C0B0E04B2F50E018161906FF
:1026900024F49C012F5F3F4F02C021E030E0240F63
:1026A000351F112329F0412F50E04F5F5F4F02C0CB
:1026B00040E050E0420F531F2B2D30E042175307EC
:1026C00014F4B41A01C0B12C2E2D287159F4F6015E
:1026D0002B2D30E2222319F031932150FBCFCB0C6C
:1026E000D11CB12CBB2331F0F601608396012F5F22
:1026F0003F4F6901A1110BC0F6012B2D30E32223BE
:1027000019F031932150FBCFCB0CD11CB12CF80E1A
:102710000A81372F3071A32E74FF03C0013309F4EF
:10272000FA941F142CF42F2D293018F028E001C042
:1027300021E0682F392F97FF02C060E030E0462F7C
:10274000532F612C712C3EE2932EBC01621B710948
:102750009B01DC01A41BB50BE1E0F0E0EC0FFD1FD9
:10276000AE0FBF1FE12EF12CF194E194F1084F3F21
:10277000FFEF5F0731F4F6019082B6016F5F7F4F84
:102780006B01841795074CF02417350734F4BD010D
:10279000660D771DFB01118101C010E34150510905
:1027A000FFEF6F1A7F0AB6016F5F7F4F4E155F050F
:1027B00024F0F60110836B01DACF4817590739F47A
:1027C000063320F4053319F4A11001C011E3F6011A
:1027D0001083FB018B2D90E2882319F09193815097
:1027E000FBCFFB01EB0DF11D108280E090E02996FC
:1027F0000FB6F894DEBF0FBECDBFDF91CF911F9112
:102800000F91FF90EF90DF90CF90BF90AF909F908F
:102810007F906F900895283008F027E03327DA0181
:10282000990F311D87FD916000966105710539F49E
:1028300032602E5F3D9330E32A95E1F708959F3F84
:1028400030F080387105610509F03C5F3C5F3D93D5
:10285000913008F08068911DDF93CF931F930F9301
:10286000FF92EF92192F987F9695E92F969596955E
:10287000E90FFF27E950FD4F99273327EE24FF2466
:10288000A701E70105900894079428F4360FE71E86
:10289000F81E491F511D660F771F881F991F069448
:1028A000A1F70590079428F4E70EF81E491F561F5C
:1028B000C11D770F881F991F661F0694A1F7059009
:1028C000079428F4F80E491F561FC71FD11D880F03
:1028D000991F661F771F0694A1F70590079420F4AF
:1028E000490F561FC71FD81F990F661F771F881FD4
:1028F0000694A9F784911095177041F0D695C79565
:1029000057954795F794E7941A95C1F7EDE9F2E0EA
:1029100068941590159135916591959105907FE298
:102920007395E118F10A430B560BC90BD009C0F798
:10293000E10CF11E431F561FC91FD01D7EF47033DA
:1029400011F48A95E6CFE894015030F0080F0AF4AC
:102950000027021708F4202F2395022F7A3328F03E
:1029600079E37D932A95E9F710C07D932A9589F63E
:10297000069497956795379517951794E118F10A7E
:10298000430B560BC90BD00998F023957E91739594
:102990007A3308F070E37C932013B8F77E9170616E
:1029A0007D9330F0839571E37D9370E32A95E1F791
:1029B0001124EF90FF900F911F91CF91DF919927F4
:1029C00087FD90950895DC01FC01672F71917723B5
:1029D000E1F7329704C07C916D9370836291AE17DA
:0A29E000BF07C8F30895F894FFCF75
:1029EA00000018058000736574757020696E003FD9
:1029FA00743D0026683D0026636F323D00266863F9
:102A0A00686F3D0026706D31303D0026706D32359D
:102A1A003D0026706D3130303D0045535038323616
:102A2A00363A3A45535038323636004553503832E2
:102A3A0036363A3A646F4154436D64576974684351
:102A4A006865636B09434845434B3D0009434D4460
:102A5A003D0009524553554C543D004553503832B8
:102A6A0036363A3A736D617274436F6E66696700FF
:102A7A0041540D0A0041542B5253540D0A00574930
:102A8A00464920474F54204950006E6F7720747290
:102A9A0079696E6720746F20636F6E6E65637469FF
:102AAA006E6720776966692020796F75206861767C
:102ABA006520313230207365636F6E647300415450
:102ACA002B4357534D41525453544152543D310DA7
:102ADA000A005749464920434F4E4E454354454400
:102AEA000041542B43495053544152543D225443BC
:102AFA0050222C2200222C00434F4E4E45435400B4
:102B0A00474554200020485454502F312E310D0A85
:102B1A00486F73743A20000D0A436F6E6E656374D2
:102B2A00696F6E3A204B6565702D416C6976650D4B
:102B3A000A0D0A0D0A0041542B43495053454E448D
:102B4A003D003E0053454E44204F4B002D2D2D2D68
:102B5A002D2D206874747020726573706F6E7365A2
:102B6A00207374617274202D2D2D2D2D2D002D2D85
:102B7A002D2D2D2D206874747020726573706F6E00
:102B8A00736520656E64202D2D2D2D2D2D000000DE
:102B9A0000007E069A08D405ED05DF055D066E6124
:0C2BAA006E00696E66006F7666002E00FB
:00000001FF
